S0190000414D49545F46494E414C5F50524F4A45542E73726563E4
S11300000C942A000C9447000C9447000C9447006D
S11300100C9447000C9447000C9447000C94470040
S11300200C9447000C9447000C9447000C94470030
S11300300C9447000C9447000C9447000C94470020
S11300400C9447000C9447000C9447000C94470010
S11300500C94470011241FBECFE5D4E0DEBFCDBF12
S113006011E0A0E6B0E0E0EAF6E002C005900D92EF
S1130070A038B107D9F721E0A0E8B1E001C01D9292
S1130080A038B207E1F70E949A000C944E030C9436
S1130090000010BC83E389B98AB188618AB980B54C
S11300A0866880BD08955D9BFECF8CB989EF90E092
S11300B00197F1F700C000000895CF93DF93EC019E
S11300C08881882331F021960E94530089918111FF
S11300D0FBCFDF91CF910895959A0000000082B381
S11300E0807C82BB089588BB82B38B7782BB0E94DD
S11300F06C0018BA089588BB9798929A0E946C0075
S113010018BA0895CF93DF93EC018881882379F09E
S113011021960E947B002FE38DE093E021508040E4
S11301209040E1F700C0000089918111F2CFDF9186
S1130130CF9108950E946E020E94EE020E9448022E
S11301400E9449008FEF87BB2FE38DE093E021509D
S113015080409040E1F700C0000081B3846A81BB15
S11301602FE986E891E0215080409040E1F700C0FB
S11301700000812C912C0F2EF4E64F2EF02D512CE3
S1130180612C712C22242394312CC42DD52DA62C22
S1130190B72CC62CD72C062D172DE62CF72C60E097
S11301A070E0CB010E9434038D3F934020F08FEF29
S11301B0E81AF80A02C00F5F1F4F61E070E080E0A8
S11301C090E00E9434038D3F934020F08FEFC81AD3
S11301D0D80A03C09FEFA91AB90A21972097F9F604
S11301E0E016F10608F043C0CA14DB0408F03FC06F
S11301F04FEF61E070E080E090E00E94C00240E0D8
S113020060E070E0CB010E94C0028114910409F007
S1130210BCCF81E00E9473008FE493EC0197F1F767
S113022000C0000088E30E9473008FE493EC019700
S1130230F1F700C000008EE00E94730080E80E9485
S1130240730083ED90E30197F1F700C000008CE3A5
S113025091E00E9482009FE32DE083E091502040D2
S11302608040E1F700C00000822C932C8ECF60E028
S113027070E0CB010E940E03892B89F04FEF62E0FE
S113028070E080E090E00E94C0029FE72AE186E0EF
S1130290915020408040E1F700C0000007C040E0DA
S11302A062E070E080E090E00E94C00289E491E0A6
S11302B00E945D008DE00E9453008AE00E9453007A
S11302C040E061E070E080E090E00E94C0024FEF07
S11302D060E070E0CB010E94C00281E00E947300E4
S11302E08FE493EC0197F1F700C0000088E30E94CB
S11302F073008FE493EC0197F1F700C000008EE0E7
S11303000E94730080E80E94730083ED90E30197DC
S1130310F1F700C000008CE591E00E9482009FE3A9
S11303202DE083E0915020408040E1F700C00000C0
S1130330862C972C2ACFFC0180818130E1F030F0AB
S1130340823071F1833009F440C008959AB38181F9
S1130350282F2095922322818223892B8ABB2BB3B9
S113036081813381382392819095932380958223D0
S1130370892B8BBB089597B38181282F20959223D5
S113038022818223892B87BB28B38181338138233F
S113039092819095932380958223892B88BB08951D
S11303A094B38181282F2095922322818223892B43
S11303B084BB25B381813381382392819095932323
S11303C080958223892B85BB089591B38181282F41
S11303D02095922322818223892B81BB22B38181A0
S11303E03381382392819095932380958223892B9E
S11303F082BB0895FC018081813081F028F0823035
S1130400B9F08330F9F008959BB38181282F2095AA
S1130410922322818223892B8BBB089598B38181F7
S1130420282F2095922322818223892B88BB08952B
S113043095B38181282F2095922322818223892BB1
S113044085BB089592B38181282F20959223228120
S11304508223892B82BB0895FC018081813051F075
S113046028F0823059F0833069F010C099B381814B
S11304708923089596B381818923089593B3818153
S11304808923089590B381818923089580E0089594
S1130490CF93DF9300D000D0CDB7DEB71B821C8290
S11304A081E090E000906F0102C0880F991F0A94C8
S11304B0E2F78A8380916E018983CE0101960E94BE
S11304C09B0186B1876086B93E9A379A369A0F9017
S11304D00F900F900F90DF91CF9108959F92AF925C
S11304E0BF92CF92DF92EF92FF920F931F93CF931D
S11304F0DF93CDB7DEB727970FB6F894DEBF0FBEF4
S1130500CDBF8FEF8B831C8202E711E00F2EFBE738
S1130510AF2EF1E0BF2EF02DCC24C394D12CF801E2
S113052032979080998231967601008002C0EE0C59
S1130530FF1C0A94E2F7EA82CE0101960E949B0115
S11305409D82EE82F80180818F83CE0105960E9400
S1130550FA010D5F1F4F0A151B0509F727960FB601
S1130560F894DEBF0FBECDBFDF91CF911F910F91E5
S1130570FF90EF90DF90CF90BF90AF909F90089541
S1130580CF93DF9300D01F92CDB7DEB763307105F0
S113059081059105E0F49B01220F331F620F731F45
S11305A0FB01E059FE4F8081898381E090E0018066
S11305B002C0880F991F0A94E2F78A838281482730
S11305C04B83CE0101960E94FA0181E001C08FEFB6
S11305D00F900F900F90DF91CF910895CF93DF93F9
S11305E000D000D0CDB7DEB71B821C828091790188
S11305F0898381E090E000907A0102C0880F991FFE
S11306000A94E2F78A83CE0101960E949B010F901F
S11306100F900F900F90DF91CF910895CF93DF93B8
S113062000D0CDB7DEB7672B682B692BC1F480915E
S11306307901898381E090E000907A0102C0880FFB
S1130640991F0A94E2F78A83CE0101960E942C0234
S113065021E090E0811101C020E0822F00C00F90C2
S11306600F90DF91CF910895623071058105910556
S113067090F427B1207F27B927B1660F771FFB01BC
S1130680E458FE4F8081822B87B9369A3699FECF83
S113069084B195B108958FEF9FEF0895F894FFCF3B
S11306A04154004F4B0041542B554152543D343872
S11306B030302C302C300041542B554152543D39AC
S11306C03630302C302C300041542B554152543D9F
S11306D031393230302C302C300041542B554152BA
S11306E0543D33383430302C302C300041542B55A9
S11306F04152543D35373630302C302C3000415483
S11307002B554152543D3131353230302C302C3060
S11307100041542B554152543D3233303430302C47
S1130720302C300041542B554152543D343630382E
S113073030302C302C300041542B554152543D392B
S113074032313630302C302C300041542B5541524C
S1130750543D313338323430302C302C3000415455
S11307602B4E414D453D0041542B56455253494F64
S11307704E3F0041542B505357443D00536166652E
S113078020726567696F6E20005761726E696E67CB
S1130790206C6F756420766F6963650044616E67D1
S11307A065726F757320726567696F6E2000000053
S11307B00207000306000206000304000000010013
S9030000FC
